{
  "contractName": "VotingSystem",
  "abi": [
    {
      "inputs": [],
      "payable": false,
      "stateMutability": "nonpayable",
      "type": "constructor"
    },
    {
      "constant": true,
      "inputs": [],
      "name": "electionDescription",
      "outputs": [
        {
          "internalType": "string",
          "name": "",
          "type": "string"
        }
      ],
      "payable": false,
      "stateMutability": "view",
      "type": "function"
    },
    {
      "constant": true,
      "inputs": [],
      "name": "electionStarted",
      "outputs": [
        {
          "internalType": "bool",
          "name": "",
          "type": "bool"
        }
      ],
      "payable": false,
      "stateMutability": "view",
      "type": "function"
    },
    {
      "constant": false,
      "inputs": [
        {
          "internalType": "string",
          "name": "description",
          "type": "string"
        }
      ],
      "name": "setElectionDescription",
      "outputs": [],
      "payable": false,
      "stateMutability": "nonpayable",
      "type": "function"
    },
    {
      "constant": false,
      "inputs": [
        {
          "internalType": "string",
          "name": "newDescription",
          "type": "string"
        }
      ],
      "name": "resetElection",
      "outputs": [],
      "payable": false,
      "stateMutability": "nonpayable",
      "type": "function"
    },
    {
      "constant": true,
      "inputs": [],
      "name": "isModerator",
      "outputs": [
        {
          "internalType": "bool",
          "name": "",
          "type": "bool"
        }
      ],
      "payable": false,
      "stateMutability": "view",
      "type": "function"
    },
    {
      "constant": false,
      "inputs": [
        {
          "internalType": "address",
          "name": "newModerator",
          "type": "address"
        }
      ],
      "name": "approveModerator",
      "outputs": [],
      "payable": false,
      "stateMutability": "nonpayable",
      "type": "function"
    },
    {
      "constant": false,
      "inputs": [
        {
          "internalType": "string",
          "name": "newCandidateName",
          "type": "string"
        }
      ],
      "name": "runCandidate",
      "outputs": [],
      "payable": false,
      "stateMutability": "nonpayable",
      "type": "function"
    },
    {
      "constant": false,
      "inputs": [],
      "name": "unRunCandidate",
      "outputs": [],
      "payable": false,
      "stateMutability": "nonpayable",
      "type": "function"
    },
    {
      "constant": true,
      "inputs": [],
      "name": "getCandidates",
      "outputs": [
        {
          "internalType": "address[]",
          "name": "",
          "type": "address[]"
        }
      ],
      "payable": false,
      "stateMutability": "view",
      "type": "function"
    },
    {
      "constant": true,
      "inputs": [
        {
          "internalType": "address",
          "name": "candidateAddress",
          "type": "address"
        }
      ],
      "name": "getCandidateName",
      "outputs": [
        {
          "internalType": "string",
          "name": "",
          "type": "string"
        }
      ],
      "payable": false,
      "stateMutability": "view",
      "type": "function"
    },
    {
      "constant": true,
      "inputs": [
        {
          "internalType": "address",
          "name": "candidateAddress",
          "type": "address"
        }
      ],
      "name": "getCandidateVotes",
      "outputs": [
        {
          "internalType": "uint256",
          "name": "",
          "type": "uint256"
        }
      ],
      "payable": false,
      "stateMutability": "view",
      "type": "function"
    },
    {
      "constant": false,
      "inputs": [
        {
          "internalType": "address",
          "name": "candidateAddress",
          "type": "address"
        }
      ],
      "name": "vote",
      "outputs": [],
      "payable": false,
      "stateMutability": "nonpayable",
      "type": "function"
    },
    {
      "constant": false,
      "inputs": [],
      "name": "beginElection",
      "outputs": [],
      "payable": false,
      "stateMutability": "nonpayable",
      "type": "function"
    },
    {
      "constant": false,
      "inputs": [],
      "name": "endElection",
      "outputs": [
        {
          "internalType": "address[]",
          "name": "",
          "type": "address[]"
        }
      ],
      "payable": false,
      "stateMutability": "nonpayable",
      "type": "function"
    }
  ],
  "bytecode": "0x60806040523480156200001157600080fd5b5033600560006101000a81548173ffffffffffffffffffffffffffffffffffffffff021916908373ffffffffffffffffffffffffffffffffffffffff1602179055506001600660003373ffffffffffffffffffffffffffffffffffffffff1673ffffffffffffffffffffffffffffffffffffffff16815260200190815260200160002060006101000a81548160ff0219169083151502179055506040518060400160405280601781526020017f4465736372697074696f6e20706c616365686f6c64657200000000000000000081525060049080519060200190620000f8929190620000ff565b50620001ae565b828054600181600116156101000203166002900490600052602060002090601f016020900481019282601f106200014257805160ff191683800117855562000173565b8280016001018555821562000173579182015b828111156200017257825182559160200191906001019062000155565b5b50905062000182919062000186565b5090565b620001ab91905b80821115620001a75760008160009055506001016200018d565b5090565b90565b611d3980620001be6000396000f3fe608060405234801561001057600080fd5b50600436106100ea5760003560e01c80636dd7d8ea1161008c578063aca17e9011610066578063aca17e90146105b0578063aeabaff3146105ba578063d5346da1146105dc578063d82f25f0146105fe576100ea565b80636dd7d8ea1461046d5780637892df85146104b15780638d2622cd1461056c576100ea565b80633d72de43116100c85780633d72de431461021557806349a2b603146102d057806359f78468146103535780636d6dfd9e146103b2576100ea565b806306a49fce146100ef5780631b95f76b1461014e5780631e0efcf314610158575b600080fd5b6100f7610656565b6040518080602001828103825283818151815260200191508051906020019060200280838360005b8381101561013a57808201518184015260208101905061011f565b505050509050019250505060405180910390f35b61015661073d565b005b61019a6004803603602081101561016e57600080fd5b81019080803573ffffffffffffffffffffffffffffffffffffffff1690602001909291905050506108ea565b6040518080602001828103825283818151815260200191508051906020019080838360005b838110156101da5780820151818401526020810190506101bf565b50505050905090810190601f1680156102075780820380516001836020036101000a031916815260200191505b509250505060405180910390f35b6102ce6004803603602081101561022b57600080fd5b810190808035906020019064010000000081111561024857600080fd5b82018360208201111561025a57600080fd5b8035906020019184600183028401116401000000008311171561027c57600080fd5b91908080601f016020809104026020016040519081016040528093929190818152602001838380828437600081840152601f19601f820116905080830192505050505050509192919290505050610ab1565b005b6102d8610b74565b6040518080602001828103825283818151815260200191508051906020019080838360005b838110156103185780820151818401526020810190506102fd565b50505050905090810190601f1680156103455780820380516001836020036101000a031916815260200191505b509250505060405180910390f35b61035b610c12565b6040518080602001828103825283818151815260200191508051906020019060200280838360005b8381101561039e578082015181840152602081019050610383565b505050509050019250505060405180910390f35b61046b600480360360208110156103c857600080fd5b81019080803590602001906401000000008111156103e557600080fd5b8201836020820111156103f757600080fd5b8035906020019184600183028401116401000000008311171561041957600080fd5b91908080601f016020809104026020016040519081016040528093929190818152602001838380828437600081840152601f19601f82011690508083019250505050505050919291929050505061102b565b005b6104af6004803603602081101561048357600080fd5b81019080803573ffffffffffffffffffffffffffffffffffffffff169060200190929190505050611219565b005b61056a600480360360208110156104c757600080fd5b81019080803590602001906401000000008111156104e457600080fd5b8201836020820111156104f657600080fd5b8035906020019184600183028401116401000000008311171561051857600080fd5b91908080601f016020809104026020016040519081016040528093929190818152602001838380828437600081840152601f19601f820116905080830192505050505050509192919290505050611559565b005b6105ae6004803603602081101561058257600080fd5b81019080803573ffffffffffffffffffffffffffffffffffffffff169060200190929190505050611702565b005b6105b8611803565b005b6105c2611868565b604051808215151515815260200191505060405180910390f35b6105e46118bc565b604051808215151515815260200191505060405180910390f35b6106406004803603602081101561061457600080fd5b81019080803573ffffffffffffffffffffffffffffffffffffffff1690602001909291905050506118cf565b6040518082815260200191505060405180910390f35b60608060028054905060405190808252806020026020018201604052801561068d5781602001602082028038833980820191505090505b50905060008090505b60028054905081101561073557600281815481106106b057fe5b906000526020600020906003020160010160009054906101000a900473ffffffffffffffffffffffffffffffffffffffff168282815181106106ee57fe5b602002602001019073ffffffffffffffffffffffffffffffffffffffff16908173ffffffffffffffffffffffffffffffffffffffff16815250508080600101915050610696565b508091505090565b60001515600360009054906101000a900460ff161515146107c6576040517f08c379a000000000000000000000000000000000000000000000000000000000815260040180806020018281038252601d8152602001807f456c656374696f6e2068617320616c726561647920737461727465642100000081525060200191505060405180910390fd5b60011515600660003373ffffffffffffffffffffffffffffffffffffffff1673ffffffffffffffffffffffffffffffffffffffff16815260200190815260200160002060009054906101000a900460ff1615151461086f576040517f08c379a0000000000000000000000000000000000000000000000000000000008152600401808060200182810382526023815260200180611ce26023913960400191505060405180910390fd5b6002808054905010156108cd576040517f08c379a0000000000000000000000000000000000000000000000000000000008152600401808060200182810382526026815260200180611c306026913960400191505060405180910390fd5b6001600360006101000a81548160ff021916908315150217905550565b606060008090505b600280549050811015610a3d578273ffffffffffffffffffffffffffffffffffffffff166002828154811061092357fe5b906000526020600020906003020160010160009054906101000a900473ffffffffffffffffffffffffffffffffffffffff1673ffffffffffffffffffffffffffffffffffffffff161415610a30576002818154811061097e57fe5b90600052602060002090600302016000018054600181600116156101000203166002900480601f016020809104026020016040519081016040528092919081815260200182805460018160011615610100020316600290048015610a235780601f106109f857610100808354040283529160200191610a23565b820191906000526020600020905b815481529060010190602001808311610a0657829003601f168201915b5050505050915050610aac565b80806001019150506108f2565b506040517f08c379a00000000000000000000000000000000000000000000000000000000081526004018080602001828103825260198152602001807f43616e64696461746520646f6573206e6f74206578697374210000000000000081525060200191505060405180910390fd5b919050565b60011515600660003373ffffffffffffffffffffffffffffffffffffffff1673ffffffffffffffffffffffffffffffffffffffff16815260200190815260200160002060009054906101000a900460ff16151514610b5a576040517f08c379a0000000000000000000000000000000000000000000000000000000008152600401808060200182810382526032815260200180611c566032913960400191505060405180910390fd5b8060049080519060200190610b709291906119fe565b5050565b60048054600181600116156101000203166002900480601f016020809104026020016040519081016040528092919081815260200182805460018160011615610100020316600290048015610c0a5780601f10610bdf57610100808354040283529160200191610c0a565b820191906000526020600020905b815481529060010190602001808311610bed57829003601f168201915b505050505081565b606060011515600360009054906101000a900460ff16151514610c9d576040517f08c379a00000000000000000000000000000000000000000000000000000000081526004018080602001828103825260158152602001807f456c656374696f6e20686173207374617274656421000000000000000000000081525060200191505060405180910390fd5b60011515600660003373ffffffffffffffffffffffffffffffffffffffff1673ffffffffffffffffffffffffffffffffffffffff16815260200190815260200160002060009054906101000a900460ff16151514610d46576040517f08c379a0000000000000000000000000000000000000000000000000000000008152600401808060200182810382526023815260200180611ce26023913960400191505060405180910390fd5b6000600360006101000a81548160ff0219169083151502179055506060600280549050604051908082528060200260200182016040528015610d975781602001602082028038833980820191505090505b5090506002600081548110610da857fe5b906000526020600020906003020160010160009054906101000a900473ffffffffffffffffffffffffffffffffffffffff1681600081518110610de757fe5b602002602001019073ffffffffffffffffffffffffffffffffffffffff16908173ffffffffffffffffffffffffffffffffffffffff1681525050600060019050600080905060006002600081548110610e3c57fe5b906000526020600020906003020160020154905060008090505b600280549050811015610f41578160028281548110610e7157fe5b9060005260206000209060030201600201541115610f345760028181548110610e9657fe5b906000526020600020906003020160010160009054906101000a900473ffffffffffffffffffffffffffffffffffffffff1685600081518110610ed557fe5b602002602001019073ffffffffffffffffffffffffffffffffffffffff16908173ffffffffffffffffffffffffffffffffffffffff168152505080925060028181548110610f1f57fe5b90600052602060002090600302016002015491505b8080600101915050610e56565b5060008090505b60028054905081101561102057828114158015610f8257508160028281548110610f6e57fe5b906000526020600020906003020160020154145b156110135760028181548110610f9457fe5b906000526020600020906003020160010160009054906101000a900473ffffffffffffffffffffffffffffffffffffffff16858581518110610fd257fe5b602002602001019073ffffffffffffffffffffffffffffffffffffffff16908173ffffffffffffffffffffffffffffffffffffffff16815250506001840193505b8080600101915050610f48565b508394505050505090565b60001515600360009054906101000a900460ff1615151461104b57600080fd5b600080905060008090505b6002805490508110156110e7573373ffffffffffffffffffffffffffffffffffffffff166002828154811061108757fe5b906000526020600020906003020160010160009054906101000a900473ffffffffffffffffffffffffffffffffffffffff1673ffffffffffffffffffffffffffffffffffffffff1614156110da57600191505b8080600101915050611056565b506000151581151514611145576040517f08c379a0000000000000000000000000000000000000000000000000000000008152600401808060200182810382526021815260200180611c0f6021913960400191505060405180910390fd5b600260405180606001604052808481526020013373ffffffffffffffffffffffffffffffffffffffff16815260200160008152509080600181540180825580915050906001820390600052602060002090600302016000909192909190915060008201518160000190805190602001906111c0929190611a7e565b5060208201518160010160006101000a81548173ffffffffffffffffffffffffffffffffffffffff021916908373ffffffffffffffffffffffffffffffffffffffff160217905550604082015181600201555050505050565b60011515600360009054906101000a900460ff161515146112a2576040517f08c379a00000000000000000000000000000000000000000000000000000000081526004018080602001828103825260178152602001807f566f74696e6720686173206e6f7420737461727465642100000000000000000081525060200191505060405180910390fd5b600015156000803373ffffffffffffffffffffffffffffffffffffffff1673ffffffffffffffffffffffffffffffffffffffff16815260200190815260200160002060009054906101000a900460ff16151514611367576040517f08c379a00000000000000000000000000000000000000000000000000000000081526004018080602001828103825260198152602001807f436c69656e742068617320616c726561647920766f746564210000000000000081525060200191505060405180910390fd5b60008090505b6002805490508110156114ea578173ffffffffffffffffffffffffffffffffffffffff166002828154811061139e57fe5b906000526020600020906003020160010160009054906101000a900473ffffffffffffffffffffffffffffffffffffffff1673ffffffffffffffffffffffffffffffffffffffff1614156114dd576000600282815481106113fb57fe5b906000526020600020906003020190506001816002016000828254019250508190555060016000803373ffffffffffffffffffffffffffffffffffffffff1673ffffffffffffffffffffffffffffffffffffffff16815260200190815260200160002060006101000a81548160ff02191690831515021790555060013390806001815401808255809150509060018203906000526020600020016000909192909190916101000a81548173ffffffffffffffffffffffffffffffffffffffff021916908373ffffffffffffffffffffffffffffffffffffffff16021790555050505b808060010191505061136d565b506040517f08c379a00000000000000000000000000000000000000000000000000000000081526004018080602001828103825260198152602001807f43616e64696461746520646f6573206e6f74206578697374210000000000000081525060200191505060405180910390fd5b60011515600660003373ffffffffffffffffffffffffffffffffffffffff1673ffffffffffffffffffffffffffffffffffffffff16815260200190815260200160002060009054906101000a900460ff16151514611602576040517f08c379a0000000000000000000000000000000000000000000000000000000008152600401808060200182810382526027815260200180611cbb6027913960400191505060405180910390fd5b60008090505b6001805490508110156116b05760008060006001848154811061162757fe5b9060005260206000200160009054906101000a900473ffffffffffffffffffffffffffffffffffffffff1673ffffffffffffffffffffffffffffffffffffffff1673ffffffffffffffffffffffffffffffffffffffff16815260200190815260200160002060006101000a81548160ff0219169083151502179055508080600101915050611608565b50600260006116bf9190611afe565b600160006116cd9190611b22565b80600490805190602001906116e39291906119fe565b506000600360006101000a81548160ff02191690831515021790555050565b600560009054906101000a900473ffffffffffffffffffffffffffffffffffffffff1673ffffffffffffffffffffffffffffffffffffffff163373ffffffffffffffffffffffffffffffffffffffff16146117a8576040517f08c379a0000000000000000000000000000000000000000000000000000000008152600401808060200182810382526033815260200180611c886033913960400191505060405180910390fd5b6001600660008373ffffffffffffffffffffffffffffffffffffffff1673ffffffffffffffffffffffffffffffffffffffff16815260200190815260200160002060006101000a81548160ff02191690831515021790555050565b600280548061180e57fe5b6001900381819060005260206000209060030201600080820160006118339190611b43565b6001820160006101000a81549073ffffffffffffffffffffffffffffffffffffffff0219169055600282016000905550509055565b6000600660003373ffffffffffffffffffffffffffffffffffffffff1673ffffffffffffffffffffffffffffffffffffffff16815260200190815260200160002060009054906101000a900460ff16905090565b600360009054906101000a900460ff1681565b600080600090505b60028054905081101561198a578273ffffffffffffffffffffffffffffffffffffffff166002828154811061190857fe5b906000526020600020906003020160010160009054906101000a900473ffffffffffffffffffffffffffffffffffffffff1673ffffffffffffffffffffffffffffffffffffffff16141561197d576002818154811061196357fe5b9060005260206000209060030201600201549150506119f9565b80806001019150506118d7565b506040517f08c379a00000000000000000000000000000000000000000000000000000000081526004018080602001828103825260198152602001807f43616e64696461746520646f6573206e6f74206578697374210000000000000081525060200191505060405180910390fd5b919050565b828054600181600116156101000203166002900490600052602060002090601f016020900481019282601f10611a3f57805160ff1916838001178555611a6d565b82800160010185558215611a6d579182015b82811115611a6c578251825591602001919060010190611a51565b5b509050611a7a9190611b8b565b5090565b828054600181600116156101000203166002900490600052602060002090601f016020900481019282601f10611abf57805160ff1916838001178555611aed565b82800160010185558215611aed579182015b82811115611aec578251825591602001919060010190611ad1565b5b509050611afa9190611b8b565b5090565b5080546000825560030290600052602060002090810190611b1f9190611bb0565b50565b5080546000825590600052602060002090810190611b409190611b8b565b50565b50805460018160011615610100020316600290046000825580601f10611b695750611b88565b601f016020900490600052602060002090810190611b879190611b8b565b5b50565b611bad91905b80821115611ba9576000816000905550600101611b91565b5090565b90565b611c0b91905b80821115611c075760008082016000611bcf9190611b43565b6001820160006101000a81549073ffffffffffffffffffffffffffffffffffffffff0219169055600282016000905550600301611bb6565b5090565b9056fe43616e646964617465206164647265737320616c726561647920657869737473215468657265206d757374206265206174206c656173742074776f2063616e64696461746573214f6e6c792061206d6f64657261746f722063616e207365742074686520656c656374696f6e206465736372697074696f6e214d6573736167652063616e206f6e6c792062652063616c6c656420627920736d61727420636f6e7472616374206f776e6572214f6e6c792061206d6f64657261746f722063616e20726573657420616e20656c656374696f6e2146756e6374696f6e2063616c6c6572206973206e6f742061206d6f64657261746f7221a265627a7a72315820c081904a8391f4c2fda811a7e262dcf554018acd167f1eaf73d6788035ac97fd64736f6c63430005100032",
  "source": "// SPDX-License-Identifier: MIT\npragma solidity >=0.4.21 <0.7.0;\n\n// to change: use a list of structs for the candidate to replace all the mappings\n\ncontract VotingSystem {\n    struct Candidate {\n        string name;\n        address addr;\n        uint256 votes;\n    }\n\n    // keep track of which accounts have voted in current election\n    mapping(address => bool) private hasVoted;\n    // list of voter addresses\n    address[] private voters;\n\n    // list of all candidates\n    Candidate[] private candidates;\n\n    // represents whether voting has started for current election\n    bool public electionStarted;\n\n    // description of the current election\n    string public electionDescription;\n\n    // owner of contract, always deploying account\n    address private owner;\n\n    // mapping of addresses to bool showing moderator status\n    mapping(address => bool) private moderators;\n\n    constructor() public {\n        // set owner to the account which deployed the contract\n        owner = msg.sender;\n\n        // owner is automatically a moderator\n        moderators[msg.sender] = true;\n\n        // set placeholder for election description\n        electionDescription = \"Description placeholder\";\n    }\n\n    // sets the description of the election\n    function setElectionDescription(string memory description) public {\n        require(\n            moderators[msg.sender] == true,\n            \"Only a moderator can set the election description!\"\n        );\n\n        electionDescription = description;\n    }\n\n    // resets the election\n    function resetElection(string memory newDescription) public {\n        require(\n            moderators[msg.sender] == true,\n            \"Only a moderator can reset an election!\"\n        );\n\n        // reset all voters\n        for (uint256 i = 0; i < voters.length; i++) {\n            hasVoted[voters[i]] = false;\n        }\n\n        delete candidates;\n        delete voters;\n        electionDescription = newDescription;\n\n        electionStarted = false;\n    }\n\n    // returns true if function caller is a moderator and false if not\n    function isModerator() public view returns (bool) {\n        return moderators[msg.sender];\n    }\n\n    // approve a new given moderator\n    function approveModerator(address newModerator) public {\n        // function can only be called by owner\n        require(\n            msg.sender == owner,\n            \"Message can only be called by smart contract owner!\"\n        );\n\n        moderators[newModerator] = true;\n    }\n\n    // add candidate to candidates list\n    function runCandidate(string memory newCandidateName) public {\n        // require that election has not started\n        require(electionStarted == false);\n\n        // require that candidate does not already exist\n        bool doesExist = false;\n        for (uint256 i = 0; i < candidates.length; i++) {\n            if (candidates[i].addr == msg.sender) {\n                doesExist = true;\n            }\n        }\n\n        require(doesExist == false, \"Candidate address already exists!\");\n\n        // add candidate information to contract state\n        candidates.push(Candidate(newCandidateName, msg.sender, 0));\n    }\n\n    function unRunCandidate() public {\n        candidates.pop();\n    }\n\n    function getCandidates() public view returns (address[] memory) {\n        address[] memory candidateAddresses = new address[](candidates.length);\n\n        for (uint i = 0; i < candidates.length; i++) {\n            candidateAddresses[i] = candidates[i].addr;\n        }\n\n        return candidateAddresses;\n    }\n\n    // returns candidate name given candidate address\n    function getCandidateName(address candidateAddress)\n        public\n        view\n        returns (string memory)\n    {\n        // verify that candidate exists\n        for (uint256 i = 0; i < candidates.length; i++) {\n            if (candidates[i].addr == candidateAddress) {\n                return candidates[i].name;\n            }\n        }\n\n        revert(\"Candidate does not exist!\");\n    }\n\n    // returns the number of votes of a given candidate\n    function getCandidateVotes(address candidateAddress)\n        public\n        view\n        returns (uint256)\n    {\n        // verify that candidate exists\n        for (uint256 i = 0; i < candidates.length; i++) {\n            if (candidates[i].addr == candidateAddress) {\n                return candidates[i].votes;\n            }\n        }\n\n        revert(\"Candidate does not exist!\");\n    }\n\n    // vote for a candidate\n    function vote(address candidateAddress) public {\n        // verify that voting has started\n        require(electionStarted == true, \"Voting has not started!\");\n\n        // verify that voter has not already voted\n        require(hasVoted[msg.sender] == false, \"Client has already voted!\");\n\n        // verify that candidate exists\n        for (uint256 i = 0; i < candidates.length; i++) {\n            if (candidates[i].addr == candidateAddress) {\n                // incrementing candidate votes\n                Candidate storage currentCandidate = candidates[i];\n                currentCandidate.votes += 1;\n\n                // record that calling account has voted\n                hasVoted[msg.sender] = true;\n                voters.push(msg.sender);\n            }\n        }\n\n        revert(\"Candidate does not exist!\");\n    }\n\n    // start voting\n    function beginElection() public {\n        // verify that election has not already started\n        require(electionStarted == false, \"Election has already started!\");\n\n        // verify that caller of function is a moderator\n        require(\n            moderators[msg.sender] == true,\n            \"Function caller is not a moderator!\"\n        );\n\n        require(\n            candidates.length >= 2,\n            \"There must be at least two candidates!\"\n        );\n\n        electionStarted = true;\n    }\n\n    // end voting\n    function endElection() public returns (address[] memory) {\n        // verify that election has started\n        require(electionStarted == true, \"Election has started!\");\n\n        // verify that caller of function is a moderator\n        require(\n            moderators[msg.sender] == true,\n            \"Function caller is not a moderator!\"\n        );\n\n        // find the indicies of the winners in candidates\n        // create a list\n\n        electionStarted = false;\n\n        address[] memory winners = new address[](candidates.length);\n        winners[0] = candidates[0].addr;\n\n        uint256 winnersSize = 1;\n\n        uint256 winnerIdx = 0;\n\n        uint256 winningVotes = candidates[0].votes;\n\n        // first find winner\n        for (uint256 i = 0; i < candidates.length; i++) {\n            if (candidates[i].votes > winningVotes) {\n                winners[0] = candidates[i].addr;\n                winnerIdx = i;\n                winningVotes = candidates[i].votes;\n            }\n        }\n\n        // determine if there is a repeated winner\n        for (uint256 i = 0; i < candidates.length; i++) {\n            // if the index is not the same as the winning index\n            // and the number of votes for the current candidate is the same\n            // as the winning number of votes...\n            if (i != winnerIdx && candidates[i].votes == winningVotes) {\n                winners[winnersSize] = candidates[i].addr;\n                winnersSize += 1;\n            }\n        }\n\n        return winners;\n    }\n}\n\n// // addresses of all candidates\n// address[] private candidates;\n\n// // mapping of candidate id's to bool representing their existence\n// mapping(address => bool) private candidatesExist;\n\n// // mapping of addresses to bool showing moderator status\n// mapping(address => bool) private moderators;\n\n// // candidate address to name\n// mapping(address => string) private candidateNames;\n\n// // candidate address to number of votes\n// mapping(address => uint256) private candidateVotes;\n\n// // addresses of people who have voted\n// mapping(address => bool) private hasVoted;\n\n// // if false, voting has not begun and new candidates can run\n// // if true, voting has begun, people can vote, and new candidates can not run\n// bool public electionHasStarted = false;\n\n// // description of the current election\n// string electionDescription;\n\n// // owner of contract, always deploying account\n// address private owner;\n",
  "sourcePath": "/Users/maximiliankaufmann/Desktop/Projects/Blockchain/votingSystem/contracts/VotingSystem.sol",
  "compiler": {
    "name": "solc",
    "version": "0.5.16+commit.9c3226ce.Emscripten.clang"
  },
  "schemaVersion": "3.4.2",
  "updatedAt": "2021-09-14T23:18:36.169Z",
  "networkType": "ethereum",
  "devdoc": {
    "methods": {}
  },
  "userdoc": {
    "methods": {}
  }
}