{
  "contractName": "VotingSystem",
  "abi": [
    {
      "inputs": [],
      "payable": false,
      "stateMutability": "nonpayable",
      "type": "constructor"
    },
    {
      "constant": true,
      "inputs": [],
      "name": "electionHasStarted",
      "outputs": [
        {
          "internalType": "bool",
          "name": "",
          "type": "bool"
        }
      ],
      "payable": false,
      "stateMutability": "view",
      "type": "function"
    },
    {
      "constant": true,
      "inputs": [],
      "name": "isModerator",
      "outputs": [
        {
          "internalType": "bool",
          "name": "",
          "type": "bool"
        }
      ],
      "payable": false,
      "stateMutability": "view",
      "type": "function"
    },
    {
      "constant": false,
      "inputs": [
        {
          "internalType": "address",
          "name": "newModerator",
          "type": "address"
        }
      ],
      "name": "approveModerator",
      "outputs": [],
      "payable": false,
      "stateMutability": "nonpayable",
      "type": "function"
    },
    {
      "constant": false,
      "inputs": [
        {
          "internalType": "string",
          "name": "newCandidateName",
          "type": "string"
        }
      ],
      "name": "runCandidate",
      "outputs": [],
      "payable": false,
      "stateMutability": "nonpayable",
      "type": "function"
    },
    {
      "constant": false,
      "inputs": [],
      "name": "unRunCandidate",
      "outputs": [],
      "payable": false,
      "stateMutability": "nonpayable",
      "type": "function"
    },
    {
      "constant": true,
      "inputs": [],
      "name": "getCandidates",
      "outputs": [
        {
          "internalType": "address[]",
          "name": "",
          "type": "address[]"
        }
      ],
      "payable": false,
      "stateMutability": "view",
      "type": "function"
    },
    {
      "constant": true,
      "inputs": [
        {
          "internalType": "address",
          "name": "candidateAddress",
          "type": "address"
        }
      ],
      "name": "getCandidateName",
      "outputs": [
        {
          "internalType": "string",
          "name": "",
          "type": "string"
        }
      ],
      "payable": false,
      "stateMutability": "view",
      "type": "function"
    },
    {
      "constant": true,
      "inputs": [
        {
          "internalType": "address",
          "name": "candidateAddress",
          "type": "address"
        }
      ],
      "name": "getCandidateVotes",
      "outputs": [
        {
          "internalType": "uint256",
          "name": "",
          "type": "uint256"
        }
      ],
      "payable": false,
      "stateMutability": "view",
      "type": "function"
    },
    {
      "constant": false,
      "inputs": [
        {
          "internalType": "address",
          "name": "candidateAddress",
          "type": "address"
        }
      ],
      "name": "vote",
      "outputs": [],
      "payable": false,
      "stateMutability": "nonpayable",
      "type": "function"
    },
    {
      "constant": false,
      "inputs": [],
      "name": "beginElection",
      "outputs": [],
      "payable": false,
      "stateMutability": "nonpayable",
      "type": "function"
    },
    {
      "constant": false,
      "inputs": [],
      "name": "endElection",
      "outputs": [
        {
          "internalType": "address[]",
          "name": "",
          "type": "address[]"
        }
      ],
      "payable": false,
      "stateMutability": "nonpayable",
      "type": "function"
    }
  ],
  "bytecode": "0x60806040526000600660006101000a81548160ff02191690831515021790555034801561002b57600080fd5b5033600660016101000a81548173ffffffffffffffffffffffffffffffffffffffff021916908373ffffffffffffffffffffffffffffffffffffffff1602179055506001600260003373ffffffffffffffffffffffffffffffffffffffff1673ffffffffffffffffffffffffffffffffffffffff16815260200190815260200160002060006101000a81548160ff0219169083151502179055506116eb806100d46000396000f3fe608060405234801561001057600080fd5b50600436106100a95760003560e01c80636d6dfd9e116100715780636d6dfd9e146102555780636dd7d8ea146103105780638d2622cd14610354578063aca17e9014610398578063aeabaff3146103a2578063d82f25f0146103c4576100a9565b806306a49fce146100ae5780631b95f76b1461010d5780631e0efcf3146101175780633a57df5e146101d457806359f78468146101f6575b600080fd5b6100b661041c565b6040518080602001828103825283818151815260200191508051906020019060200280838360005b838110156100f95780820151818401526020810190506100de565b505050509050019250505060405180910390f35b6101156104aa565b005b6101596004803603602081101561012d57600080fd5b81019080803573ffffffffffffffffffffffffffffffffffffffff169060200190929190505050610658565b6040518080602001828103825283818151815260200191508051906020019080838360005b8381101561019957808201518184015260208101905061017e565b50505050905090810190601f1680156101c65780820380516001836020036101000a031916815260200191505b509250505060405180910390f35b6101dc6107ff565b604051808215151515815260200191505060405180910390f35b6101fe610812565b6040518080602001828103825283818151815260200191508051906020019060200280838360005b83811015610241578082015181840152602081019050610226565b505050509050019250505060405180910390f35b61030e6004803603602081101561026b57600080fd5b810190808035906020019064010000000081111561028857600080fd5b82018360208201111561029a57600080fd5b803590602001918460018302840111640100000000831117156102bc57600080fd5b91908080601f016020809104026020016040519081016040528093929190818152602001838380828437600081840152601f19601f820116905080830192505050505050509192919290505050610cf2565b005b6103526004803603602081101561032657600080fd5b81019080803573ffffffffffffffffffffffffffffffffffffffff169060200190929190505050610f31565b005b6103966004803603602081101561036a57600080fd5b81019080803573ffffffffffffffffffffffffffffffffffffffff1690602001909291905050506111ef565b005b6103a06112f0565b005b6103aa611432565b604051808215151515815260200191505060405180910390f35b610406600480360360208110156103da57600080fd5b81019080803573ffffffffffffffffffffffffffffffffffffffff169060200190929190505050611486565b6040518082815260200191505060405180910390f35b606060008054806020026020016040519081016040528092919081815260200182805480156104a057602002820191906000526020600020905b8160009054906101000a900473ffffffffffffffffffffffffffffffffffffffff1673ffffffffffffffffffffffffffffffffffffffff1681526020019060010190808311610456575b5050505050905090565b60001515600660009054906101000a900460ff16151514610533576040517f08c379a000000000000000000000000000000000000000000000000000000000815260040180806020018281038252601d8152602001807f456c656374696f6e2068617320616c726561647920737461727465642100000081525060200191505060405180910390fd5b60011515600260003373ffffffffffffffffffffffffffffffffffffffff1673ffffffffffffffffffffffffffffffffffffffff16815260200190815260200160002060009054906101000a900460ff161515146105dc576040517f08c379a00000000000000000000000000000000000000000000000000000000081526004018080602001828103825260238152602001806116946023913960400191505060405180910390fd5b6002600080549050101561063b576040517f08c379a000000000000000000000000000000000000000000000000000000000815260040180806020018281038252602681526020018061163b6026913960400191505060405180910390fd5b6001600660006101000a81548160ff021916908315150217905550565b606060011515600160008473ffffffffffffffffffffffffffffffffffffffff1673ffffffffffffffffffffffffffffffffffffffff16815260200190815260200160002060009054906101000a900460ff16151514610720576040517f08c379a00000000000000000000000000000000000000000000000000000000081526004018080602001828103825260198152602001807f43616e64696461746520646f6573206e6f74206578697374210000000000000081525060200191505060405180910390fd5b600360008373ffffffffffffffffffffffffffffffffffffffff1673ffffffffffffffffffffffffffffffffffffffff1681526020019081526020016000208054600181600116156101000203166002900480601f0160208091040260200160405190810160405280929190818152602001828054600181600116156101000203166002900480156107f35780601f106107c8576101008083540402835291602001916107f3565b820191906000526020600020905b8154815290600101906020018083116107d657829003601f168201915b50505050509050919050565b600660009054906101000a900460ff1681565b606060011515600660009054906101000a900460ff1615151461089d576040517f08c379a00000000000000000000000000000000000000000000000000000000081526004018080602001828103825260158152602001807f456c656374696f6e20686173207374617274656421000000000000000000000081525060200191505060405180910390fd5b60011515600260003373ffffffffffffffffffffffffffffffffffffffff1673ffffffffffffffffffffffffffffffffffffffff16815260200190815260200160002060009054906101000a900460ff16151514610946576040517f08c379a00000000000000000000000000000000000000000000000000000000081526004018080602001828103825260238152602001806116946023913960400191505060405180910390fd5b6000600660006101000a81548160ff02191690831515021790555060606000805490506040519080825280602002602001820160405280156109975781602001602082028038833980820191505090505b509050600080815481106109a757fe5b9060005260206000200160009054906101000a900473ffffffffffffffffffffffffffffffffffffffff16816000815181106109df57fe5b602002602001019073ffffffffffffffffffffffffffffffffffffffff16908173ffffffffffffffffffffffffffffffffffffffff1681525050600060019050600080905060008090505b600080549050811015610b66576000808281548110610a4557fe5b9060005260206000200160009054906101000a900473ffffffffffffffffffffffffffffffffffffffff1690506004600086600081518110610a8357fe5b602002602001015173ffffffffffffffffffffffffffffffffffffffff1673ffffffffffffffffffffffffffffffffffffffff16815260200190815260200160002054600460008373ffffffffffffffffffffffffffffffffffffffff1673ffffffffffffffffffffffffffffffffffffffff168152602001908152602001600020541115610b58578085600081518110610b1a57fe5b602002602001019073ffffffffffffffffffffffffffffffffffffffff16908173ffffffffffffffffffffffffffffffffffffffff16815250508192505b508080600101915050610a2a565b5060008090505b600080549050811015610ce857818114158015610c5157506004600085600081518110610b9657fe5b602002602001015173ffffffffffffffffffffffffffffffffffffffff1673ffffffffffffffffffffffffffffffffffffffff1681526020019081526020016000205460046000808481548110610be957fe5b9060005260206000200160009054906101000a900473ffffffffffffffffffffffffffffffffffffffff1673ffffffffffffffffffffffffffffffffffffffff1673ffffffffffffffffffffffffffffffffffffffff16815260200190815260200160002054145b15610cdb5760008181548110610c6357fe5b9060005260206000200160009054906101000a900473ffffffffffffffffffffffffffffffffffffffff16848481518110610c9a57fe5b602002602001019073ffffffffffffffffffffffffffffffffffffffff16908173ffffffffffffffffffffffffffffffffffffffff16815250506001830192505b8080600101915050610b6d565b5082935050505090565b60001515600660009054906101000a900460ff16151514610d1257600080fd5b60001515600160003373ffffffffffffffffffffffffffffffffffffffff1673ffffffffffffffffffffffffffffffffffffffff16815260200190815260200160002060009054906101000a900460ff16151514610dd8576040517f08c379a00000000000000000000000000000000000000000000000000000000081526004018080602001828103825260198152602001807f43616e64696461746520616c726561647920657869737473210000000000000081525060200191505060405180910390fd5b60003390806001815401808255809150509060018203906000526020600020016000909192909190916101000a81548173ffffffffffffffffffffffffffffffffffffffff021916908373ffffffffffffffffffffffffffffffffffffffff1602179055505060018060003373ffffffffffffffffffffffffffffffffffffffff1673ffffffffffffffffffffffffffffffffffffffff16815260200190815260200160002060006101000a81548160ff02191690831515021790555080600360003373ffffffffffffffffffffffffffffffffffffffff1673ffffffffffffffffffffffffffffffffffffffff1681526020019081526020016000209080519060200190610ee8929190611595565b506000600460003373ffffffffffffffffffffffffffffffffffffffff1673ffffffffffffffffffffffffffffffffffffffff1681526020019081526020016000208190555050565b60011515600660009054906101000a900460ff16151514610fba576040517f08c379a00000000000000000000000000000000000000000000000000000000081526004018080602001828103825260178152602001807f566f74696e6720686173206e6f7420737461727465642100000000000000000081525060200191505060405180910390fd5b60011515600160008373ffffffffffffffffffffffffffffffffffffffff1673ffffffffffffffffffffffffffffffffffffffff16815260200190815260200160002060009054906101000a900460ff16151514611080576040517f08c379a00000000000000000000000000000000000000000000000000000000081526004018080602001828103825260198152602001807f43616e64696461746520646f6573206e6f74206578697374210000000000000081525060200191505060405180910390fd5b60001515600560003373ffffffffffffffffffffffffffffffffffffffff1673ffffffffffffffffffffffffffffffffffffffff16815260200190815260200160002060009054906101000a900460ff16151514611146576040517f08c379a00000000000000000000000000000000000000000000000000000000081526004018080602001828103825260198152602001807f436c69656e742068617320616c726561647920766f746564210000000000000081525060200191505060405180910390fd5b6001600460008373ffffffffffffffffffffffffffffffffffffffff1673ffffffffffffffffffffffffffffffffffffffff168152602001908152602001600020600082825401925050819055506001600560003373ffffffffffffffffffffffffffffffffffffffff1673ffffffffffffffffffffffffffffffffffffffff16815260200190815260200160002060006101000a81548160ff02191690831515021790555050565b600660019054906101000a900473ffffffffffffffffffffffffffffffffffffffff1673ffffffffffffffffffffffffffffffffffffffff163373ffffffffffffffffffffffffffffffffffffffff1614611295576040517f08c379a00000000000000000000000000000000000000000000000000000000081526004018080602001828103825260338152602001806116616033913960400191505060405180910390fd5b6001600260008373ffffffffffffffffffffffffffffffffffffffff1673ffffffffffffffffffffffffffffffffffffffff16815260200190815260200160002060006101000a81548160ff02191690831515021790555050565b60008054806112fb57fe5b6001900381819060005260206000200160006101000a81549073ffffffffffffffffffffffffffffffffffffffff021916905590556000600160003373ffffffffffffffffffffffffffffffffffffffff1673ffffffffffffffffffffffffffffffffffffffff16815260200190815260200160002060006101000a81548160ff02191690831515021790555060405180602001604052806000815250600360003373ffffffffffffffffffffffffffffffffffffffff1673ffffffffffffffffffffffffffffffffffffffff16815260200190815260200160002090805190602001906113ea929190611595565b506000600460003373ffffffffffffffffffffffffffffffffffffffff1673ffffffffffffffffffffffffffffffffffffffff16815260200190815260200160002081905550565b6000600260003373ffffffffffffffffffffffffffffffffffffffff1673ffffffffffffffffffffffffffffffffffffffff16815260200190815260200160002060009054906101000a900460ff16905090565b600060011515600160008473ffffffffffffffffffffffffffffffffffffffff1673ffffffffffffffffffffffffffffffffffffffff16815260200190815260200160002060009054906101000a900460ff1615151461154e576040517f08c379a00000000000000000000000000000000000000000000000000000000081526004018080602001828103825260198152602001807f43616e64696461746520646f6573206e6f74206578697374210000000000000081525060200191505060405180910390fd5b600460008373ffffffffffffffffffffffffffffffffffffffff1673ffffffffffffffffffffffffffffffffffffffff168152602001908152602001600020549050919050565b828054600181600116156101000203166002900490600052602060002090601f016020900481019282601f106115d657805160ff1916838001178555611604565b82800160010185558215611604579182015b828111156116035782518255916020019190600101906115e8565b5b5090506116119190611615565b5090565b61163791905b8082111561163357600081600090555060010161161b565b5090565b9056fe5468657265206d757374206265206174206c656173742074776f2063616e64696461746573214d6573736167652063616e206f6e6c792062652063616c6c656420627920736d61727420636f6e7472616374206f776e65722146756e6374696f6e2063616c6c6572206973206e6f742061206d6f64657261746f7221a265627a7a72315820f418709bc040d3d2f5079b2ec2c05a72ae163392eca4f331d8be07c0b37b8dcc64736f6c63430005100032",
  "source": "// SPDX-License-Identifier: MIT\npragma solidity >=0.4.21 <0.7.0;\n\ncontract VotingSystem {\n\n    // addresses of all candidates\n    address[] private candidates;\n\n    // mapping of candidate id's to bool representing their existence\n    mapping(address => bool) private candidatesExist;\n\n    // mapping of addresses to bool showing moderator status\n    mapping(address => bool) private moderators;\n\n    // candidate address to name\n    mapping(address => string) private candidateNames;\n\n    // candidate address to number of votes\n    mapping(address => uint256) private candidateVotes;\n\n    // addresses of people who have voted\n    mapping(address => bool) private hasVoted;\n\n    // if false, voting has not begun and new candidates can run\n    // if true, voting has begun, people can vote, and new candidates can not run\n    bool public electionHasStarted = false;\n\n    // owner of contract, always deploying account\n    address private owner;\n\n    constructor() public {\n        // set owner to the account which deployed the contract\n        owner = msg.sender;\n\n        // owner is automatically a moderator\n        moderators[msg.sender] = true;\n    }\n\n    // returns true if function caller is a moderator and false if not\n    function isModerator() public view returns (bool) {\n        return moderators[msg.sender];\n    }\n\n    // approve a new given moderator\n    function approveModerator(address newModerator) public {\n        // function can only be called by owner\n        require(\n            msg.sender == owner,\n            \"Message can only be called by smart contract owner!\"\n        );\n\n        moderators[newModerator] = true;\n    }\n\n    // add candidate to candidates list\n    function runCandidate(string memory newCandidateName) public {\n        // require that election has not started\n        require(electionHasStarted == false);\n\n        // require that candidate does not already exist\n        require(\n            candidatesExist[msg.sender] == false,\n            \"Candidate already exists!\"\n        );\n\n        // add candidate information to contract state\n        candidates.push(msg.sender);\n        candidatesExist[msg.sender] = true;\n        candidateNames[msg.sender] = newCandidateName;\n        candidateVotes[msg.sender] = 0;\n    }\n\n    function unRunCandidate() public {\n        candidates.pop();\n        candidatesExist[msg.sender] = false;\n        candidateNames[msg.sender] = \"\";\n        candidateVotes[msg.sender] = 0;\n    }\n\n    function getCandidates() public view returns (address[] memory) {\n        return candidates;\n    }\n\n    // returns candidate name given candidate address\n    function getCandidateName(address candidateAddress)\n        public\n        view\n        returns (string memory)\n    {\n        // verify that candidate exists\n        require(\n            candidatesExist[candidateAddress] == true,\n            \"Candidate does not exist!\"\n        );\n\n        return candidateNames[candidateAddress];\n    }\n\n    // returns the number of votes of a given candidate\n    function getCandidateVotes(address candidateAddress)\n        public\n        view\n        returns (uint256)\n    {\n        // verify that candidate exists\n        require(\n            candidatesExist[candidateAddress] == true,\n            \"Candidate does not exist!\"\n        );\n\n        return candidateVotes[candidateAddress];\n    }\n\n    // vote for a candidate\n    function vote(address candidateAddress) public {\n        // verify that voting has started\n        require(electionHasStarted == true, \"Voting has not started!\");\n\n        // verify that candidate to vote for exists\n        require(\n            candidatesExist[candidateAddress] == true,\n            \"Candidate does not exist!\"\n        );\n\n        // verify that voter has not already voted\n        require(hasVoted[msg.sender] == false, \"Client has already voted!\");\n\n        candidateVotes[candidateAddress] += 1;\n        hasVoted[msg.sender] = true;\n    }\n\n    // start voting\n    function beginElection() public {\n        // verify that election has not already started\n        require(electionHasStarted == false, \"Election has already started!\");\n\n        // verify that caller of function is a moderator\n        require(\n            moderators[msg.sender] == true,\n            \"Function caller is not a moderator!\"\n        );\n\n        require(\n            candidates.length >= 2,\n            \"There must be at least two candidates!\"\n        );\n\n        electionHasStarted = true;\n    }\n\n    // end voting\n    function endElection() public returns (address[] memory) {\n        // verify that election has started\n        require(electionHasStarted == true, \"Election has started!\");\n\n        // verify that caller of function is a moderator\n        require(\n            moderators[msg.sender] == true,\n            \"Function caller is not a moderator!\"\n        );\n\n        electionHasStarted = false;\n\n        address[] memory winners = new address[](candidates.length);\n        winners[0] = candidates[0];\n\n        uint256 winnersSize = 1;\n\n        uint256 winnerIdx = 0;\n\n        // first find winner\n        for (uint256 i = 0; i < candidates.length; i++) {\n            address current = candidates[i];\n\n            if (candidateVotes[current] > candidateVotes[winners[0]]) {\n                winners[0] = current;\n                winnerIdx = i;\n            }\n        }\n\n        // determine if there is a repeated winner\n        for (uint256 i = 0; i < candidates.length; i++) {\n            // if the index is not the same as the winning index\n            // and the number of votes for the current candidate is the same\n            // as the winning number of votes...\n            if (\n                i != winnerIdx &&\n                candidateVotes[candidates[i]] == candidateVotes[winners[0]]\n            ) {\n                winners[winnersSize] = candidates[i];\n                winnersSize += 1;\n            }\n        }\n\n        return winners;\n    }\n}\n",
  "sourcePath": "/Users/maximiliankaufmann/Desktop/Projects/Blockchain/votingSystem/contracts/VotingSystem.sol",
  "compiler": {
    "name": "solc",
    "version": "0.5.16+commit.9c3226ce.Emscripten.clang"
  },
  "schemaVersion": "3.4.2",
  "updatedAt": "2021-09-09T18:43:42.464Z",
  "networkType": "ethereum",
  "devdoc": {
    "methods": {}
  },
  "userdoc": {
    "methods": {}
  }
}