{
  "contractName": "VotingSystem",
  "abi": [
    {
      "inputs": [],
      "payable": false,
      "stateMutability": "nonpayable",
      "type": "constructor"
    },
    {
      "constant": true,
      "inputs": [],
      "name": "electionDescription",
      "outputs": [
        {
          "internalType": "string",
          "name": "",
          "type": "string"
        }
      ],
      "payable": false,
      "stateMutability": "view",
      "type": "function"
    },
    {
      "constant": true,
      "inputs": [],
      "name": "electionStarted",
      "outputs": [
        {
          "internalType": "bool",
          "name": "",
          "type": "bool"
        }
      ],
      "payable": false,
      "stateMutability": "view",
      "type": "function"
    },
    {
      "constant": true,
      "inputs": [],
      "name": "owner",
      "outputs": [
        {
          "internalType": "address",
          "name": "",
          "type": "address"
        }
      ],
      "payable": false,
      "stateMutability": "view",
      "type": "function"
    },
    {
      "constant": false,
      "inputs": [
        {
          "internalType": "string",
          "name": "description",
          "type": "string"
        }
      ],
      "name": "setElectionDescription",
      "outputs": [],
      "payable": false,
      "stateMutability": "nonpayable",
      "type": "function"
    },
    {
      "constant": false,
      "inputs": [
        {
          "internalType": "string",
          "name": "newDescription",
          "type": "string"
        }
      ],
      "name": "resetElection",
      "outputs": [],
      "payable": false,
      "stateMutability": "nonpayable",
      "type": "function"
    },
    {
      "constant": false,
      "inputs": [
        {
          "internalType": "string",
          "name": "newCandidateName",
          "type": "string"
        }
      ],
      "name": "runCandidate",
      "outputs": [],
      "payable": false,
      "stateMutability": "nonpayable",
      "type": "function"
    },
    {
      "constant": false,
      "inputs": [],
      "name": "unRunCandidate",
      "outputs": [],
      "payable": false,
      "stateMutability": "nonpayable",
      "type": "function"
    },
    {
      "constant": true,
      "inputs": [],
      "name": "getCandidates",
      "outputs": [
        {
          "internalType": "address[]",
          "name": "",
          "type": "address[]"
        }
      ],
      "payable": false,
      "stateMutability": "view",
      "type": "function"
    },
    {
      "constant": true,
      "inputs": [
        {
          "internalType": "address",
          "name": "candidateAddress",
          "type": "address"
        }
      ],
      "name": "getCandidateName",
      "outputs": [
        {
          "internalType": "string",
          "name": "",
          "type": "string"
        }
      ],
      "payable": false,
      "stateMutability": "view",
      "type": "function"
    },
    {
      "constant": true,
      "inputs": [
        {
          "internalType": "address",
          "name": "candidateAddress",
          "type": "address"
        }
      ],
      "name": "getCandidateVotes",
      "outputs": [
        {
          "internalType": "uint256",
          "name": "",
          "type": "uint256"
        }
      ],
      "payable": false,
      "stateMutability": "view",
      "type": "function"
    },
    {
      "constant": false,
      "inputs": [
        {
          "internalType": "address",
          "name": "candidateAddress",
          "type": "address"
        }
      ],
      "name": "vote",
      "outputs": [],
      "payable": false,
      "stateMutability": "nonpayable",
      "type": "function"
    },
    {
      "constant": false,
      "inputs": [],
      "name": "beginElection",
      "outputs": [],
      "payable": false,
      "stateMutability": "nonpayable",
      "type": "function"
    },
    {
      "constant": false,
      "inputs": [],
      "name": "endElection",
      "outputs": [
        {
          "internalType": "address[]",
          "name": "",
          "type": "address[]"
        }
      ],
      "payable": false,
      "stateMutability": "nonpayable",
      "type": "function"
    }
  ],
  "bytecode": "0x60806040523480156200001157600080fd5b5033600560006101000a81548173ffffffffffffffffffffffffffffffffffffffff021916908373ffffffffffffffffffffffffffffffffffffffff1602179055506040518060400160405280601781526020017f4465736372697074696f6e20706c616365686f6c64657200000000000000000081525060049080519060200190620000a0929190620000a7565b5062000156565b828054600181600116156101000203166002900490600052602060002090601f016020900481019282601f10620000ea57805160ff19168380011785556200011b565b828001600101855582156200011b579182015b828111156200011a578251825591602001919060010190620000fd565b5b5090506200012a91906200012e565b5090565b6200015391905b808211156200014f57600081600090555060010162000135565b5090565b90565b611b9480620001666000396000f3fe608060405234801561001057600080fd5b50600436106100cf5760003560e01c80636d6dfd9e1161008c5780638da5cb5b116100665780638da5cb5b14610551578063aca17e901461059b578063d5346da1146105a5578063d82f25f0146105c7576100cf565b80636d6dfd9e146103975780636dd7d8ea146104525780637892df8514610496576100cf565b806306a49fce146100d45780631b95f76b146101335780631e0efcf31461013d5780633d72de43146101fa57806349a2b603146102b557806359f7846814610338575b600080fd5b6100dc61061f565b6040518080602001828103825283818151815260200191508051906020019060200280838360005b8381101561011f578082015181840152602081019050610104565b505050509050019250505060405180910390f35b61013b610706565b005b61017f6004803603602081101561015357600080fd5b81019080803573ffffffffffffffffffffffffffffffffffffffff1690602001909291905050506108b0565b6040518080602001828103825283818151815260200191508051906020019080838360005b838110156101bf5780820151818401526020810190506101a4565b50505050905090810190601f1680156101ec5780820380516001836020036101000a031916815260200191505b509250505060405180910390f35b6102b36004803603602081101561021057600080fd5b810190808035906020019064010000000081111561022d57600080fd5b82018360208201111561023f57600080fd5b8035906020019184600183028401116401000000008311171561026157600080fd5b91908080601f016020809104026020016040519081016040528093929190818152602001838380828437600081840152601f19601f820116905080830192505050505050509192919290505050610a77565b005b6102bd610b37565b6040518080602001828103825283818151815260200191508051906020019080838360005b838110156102fd5780820151818401526020810190506102e2565b50505050905090810190601f16801561032a5780820380516001836020036101000a031916815260200191505b509250505060405180910390f35b610340610bd5565b6040518080602001828103825283818151815260200191508051906020019060200280838360005b83811015610383578082015181840152602081019050610368565b505050509050019250505060405180910390f35b610450600480360360208110156103ad57600080fd5b81019080803590602001906401000000008111156103ca57600080fd5b8201836020820111156103dc57600080fd5b803590602001918460018302840111640100000000831117156103fe57600080fd5b91908080601f016020809104026020016040519081016040528093929190818152602001838380828437600081840152601f19601f820116905080830192505050505050509192919290505050610feb565b005b6104946004803603602081101561046857600080fd5b81019080803573ffffffffffffffffffffffffffffffffffffffff1690602001909291905050506111d9565b005b61054f600480360360208110156104ac57600080fd5b81019080803590602001906401000000008111156104c957600080fd5b8201836020820111156104db57600080fd5b803590602001918460018302840111640100000000831117156104fd57600080fd5b91908080601f016020809104026020016040519081016040528093929190818152602001838380828437600081840152601f19601f820116905080830192505050505050509192919290505050611519565b005b6105596116bf565b604051808273ffffffffffffffffffffffffffffffffffffffff1673ffffffffffffffffffffffffffffffffffffffff16815260200191505060405180910390f35b6105a36116e5565b005b6105ad61174a565b604051808215151515815260200191505060405180910390f35b610609600480360360208110156105dd57600080fd5b81019080803573ffffffffffffffffffffffffffffffffffffffff16906020019092919050505061175d565b6040518082815260200191505060405180910390f35b6060806002805490506040519080825280602002602001820160405280156106565781602001602082028038833980820191505090505b50905060008090505b6002805490508110156106fe576002818154811061067957fe5b906000526020600020906003020160010160009054906101000a900473ffffffffffffffffffffffffffffffffffffffff168282815181106106b757fe5b602002602001019073ffffffffffffffffffffffffffffffffffffffff16908173ffffffffffffffffffffffffffffffffffffffff1681525050808060010191505061065f565b508091505090565b60001515600360009054906101000a900460ff1615151461078f576040517f08c379a000000000000000000000000000000000000000000000000000000000815260040180806020018281038252601d8152602001807f456c656374696f6e2068617320616c726561647920737461727465642100000081525060200191505060405180910390fd5b600560009054906101000a900473ffffffffffffffffffffffffffffffffffffffff1673ffffffffffffffffffffffffffffffffffffffff163373ffffffffffffffffffffffffffffffffffffffff1614610835576040517f08c379a0000000000000000000000000000000000000000000000000000000008152600401808060200182810382526023815260200180611b3d6023913960400191505060405180910390fd5b600280805490501015610893576040517f08c379a0000000000000000000000000000000000000000000000000000000008152600401808060200182810382526026815260200180611abe6026913960400191505060405180910390fd5b6001600360006101000a81548160ff021916908315150217905550565b606060008090505b600280549050811015610a03578273ffffffffffffffffffffffffffffffffffffffff16600282815481106108e957fe5b906000526020600020906003020160010160009054906101000a900473ffffffffffffffffffffffffffffffffffffffff1673ffffffffffffffffffffffffffffffffffffffff1614156109f6576002818154811061094457fe5b90600052602060002090600302016000018054600181600116156101000203166002900480601f0160208091040260200160405190810160405280929190818152602001828054600181600116156101000203166002900480156109e95780601f106109be576101008083540402835291602001916109e9565b820191906000526020600020905b8154815290600101906020018083116109cc57829003601f168201915b5050505050915050610a72565b80806001019150506108b8565b506040517f08c379a00000000000000000000000000000000000000000000000000000000081526004018080602001828103825260198152602001807f43616e64696461746520646f6573206e6f74206578697374210000000000000081525060200191505060405180910390fd5b919050565b600560009054906101000a900473ffffffffffffffffffffffffffffffffffffffff1673ffffffffffffffffffffffffffffffffffffffff163373ffffffffffffffffffffffffffffffffffffffff1614610b1d576040517f08c379a0000000000000000000000000000000000000000000000000000000008152600401808060200182810382526032815260200180611ae46032913960400191505060405180910390fd5b8060049080519060200190610b3392919061188c565b5050565b60048054600181600116156101000203166002900480601f016020809104026020016040519081016040528092919081815260200182805460018160011615610100020316600290048015610bcd5780601f10610ba257610100808354040283529160200191610bcd565b820191906000526020600020905b815481529060010190602001808311610bb057829003601f168201915b505050505081565b606060011515600360009054906101000a900460ff16151514610c60576040517f08c379a00000000000000000000000000000000000000000000000000000000081526004018080602001828103825260158152602001807f456c656374696f6e20686173207374617274656421000000000000000000000081525060200191505060405180910390fd5b600560009054906101000a900473ffffffffffffffffffffffffffffffffffffffff1673ffffffffffffffffffffffffffffffffffffffff163373ffffffffffffffffffffffffffffffffffffffff1614610d06576040517f08c379a0000000000000000000000000000000000000000000000000000000008152600401808060200182810382526023815260200180611b3d6023913960400191505060405180910390fd5b6000600360006101000a81548160ff0219169083151502179055506060600280549050604051908082528060200260200182016040528015610d575781602001602082028038833980820191505090505b5090506002600081548110610d6857fe5b906000526020600020906003020160010160009054906101000a900473ffffffffffffffffffffffffffffffffffffffff1681600081518110610da757fe5b602002602001019073ffffffffffffffffffffffffffffffffffffffff16908173ffffffffffffffffffffffffffffffffffffffff1681525050600060019050600080905060006002600081548110610dfc57fe5b906000526020600020906003020160020154905060008090505b600280549050811015610f01578160028281548110610e3157fe5b9060005260206000209060030201600201541115610ef45760028181548110610e5657fe5b906000526020600020906003020160010160009054906101000a900473ffffffffffffffffffffffffffffffffffffffff1685600081518110610e9557fe5b602002602001019073ffffffffffffffffffffffffffffffffffffffff16908173ffffffffffffffffffffffffffffffffffffffff168152505080925060028181548110610edf57fe5b90600052602060002090600302016002015491505b8080600101915050610e16565b5060008090505b600280549050811015610fe057828114158015610f4257508160028281548110610f2e57fe5b906000526020600020906003020160020154145b15610fd35760028181548110610f5457fe5b906000526020600020906003020160010160009054906101000a900473ffffffffffffffffffffffffffffffffffffffff16858581518110610f9257fe5b602002602001019073ffffffffffffffffffffffffffffffffffffffff16908173ffffffffffffffffffffffffffffffffffffffff16815250506001840193505b8080600101915050610f08565b508394505050505090565b60001515600360009054906101000a900460ff1615151461100b57600080fd5b600080905060008090505b6002805490508110156110a7573373ffffffffffffffffffffffffffffffffffffffff166002828154811061104757fe5b906000526020600020906003020160010160009054906101000a900473ffffffffffffffffffffffffffffffffffffffff1673ffffffffffffffffffffffffffffffffffffffff16141561109a57600191505b8080600101915050611016565b506000151581151514611105576040517f08c379a0000000000000000000000000000000000000000000000000000000008152600401808060200182810382526021815260200180611a9d6021913960400191505060405180910390fd5b600260405180606001604052808481526020013373ffffffffffffffffffffffffffffffffffffffff168152602001600081525090806001815401808255809150509060018203906000526020600020906003020160009091929091909150600082015181600001908051906020019061118092919061190c565b5060208201518160010160006101000a81548173ffffffffffffffffffffffffffffffffffffffff021916908373ffffffffffffffffffffffffffffffffffffffff160217905550604082015181600201555050505050565b60011515600360009054906101000a900460ff16151514611262576040517f08c379a00000000000000000000000000000000000000000000000000000000081526004018080602001828103825260178152602001807f566f74696e6720686173206e6f7420737461727465642100000000000000000081525060200191505060405180910390fd5b600015156000803373ffffffffffffffffffffffffffffffffffffffff1673ffffffffffffffffffffffffffffffffffffffff16815260200190815260200160002060009054906101000a900460ff16151514611327576040517f08c379a00000000000000000000000000000000000000000000000000000000081526004018080602001828103825260198152602001807f436c69656e742068617320616c726561647920766f746564210000000000000081525060200191505060405180910390fd5b60008090505b6002805490508110156114aa578173ffffffffffffffffffffffffffffffffffffffff166002828154811061135e57fe5b906000526020600020906003020160010160009054906101000a900473ffffffffffffffffffffffffffffffffffffffff1673ffffffffffffffffffffffffffffffffffffffff16141561149d576000600282815481106113bb57fe5b906000526020600020906003020190506001816002016000828254019250508190555060016000803373ffffffffffffffffffffffffffffffffffffffff1673ffffffffffffffffffffffffffffffffffffffff16815260200190815260200160002060006101000a81548160ff02191690831515021790555060013390806001815401808255809150509060018203906000526020600020016000909192909190916101000a81548173ffffffffffffffffffffffffffffffffffffffff021916908373ffffffffffffffffffffffffffffffffffffffff16021790555050505b808060010191505061132d565b506040517f08c379a00000000000000000000000000000000000000000000000000000000081526004018080602001828103825260198152602001807f43616e64696461746520646f6573206e6f74206578697374210000000000000081525060200191505060405180910390fd5b600560009054906101000a900473ffffffffffffffffffffffffffffffffffffffff1673ffffffffffffffffffffffffffffffffffffffff163373ffffffffffffffffffffffffffffffffffffffff16146115bf576040517f08c379a0000000000000000000000000000000000000000000000000000000008152600401808060200182810382526027815260200180611b166027913960400191505060405180910390fd5b60008090505b60018054905081101561166d576000806000600184815481106115e457fe5b9060005260206000200160009054906101000a900473ffffffffffffffffffffffffffffffffffffffff1673ffffffffffffffffffffffffffffffffffffffff1673ffffffffffffffffffffffffffffffffffffffff16815260200190815260200160002060006101000a81548160ff02191690831515021790555080806001019150506115c5565b506002600061167c919061198c565b6001600061168a91906119b0565b80600490805190602001906116a092919061188c565b506000600360006101000a81548160ff02191690831515021790555050565b600560009054906101000a900473ffffffffffffffffffffffffffffffffffffffff1681565b60028054806116f057fe5b60019003818190600052602060002090600302016000808201600061171591906119d1565b6001820160006101000a81549073ffffffffffffffffffffffffffffffffffffffff0219169055600282016000905550509055565b600360009054906101000a900460ff1681565b600080600090505b600280549050811015611818578273ffffffffffffffffffffffffffffffffffffffff166002828154811061179657fe5b906000526020600020906003020160010160009054906101000a900473ffffffffffffffffffffffffffffffffffffffff1673ffffffffffffffffffffffffffffffffffffffff16141561180b57600281815481106117f157fe5b906000526020600020906003020160020154915050611887565b8080600101915050611765565b506040517f08c379a00000000000000000000000000000000000000000000000000000000081526004018080602001828103825260198152602001807f43616e64696461746520646f6573206e6f74206578697374210000000000000081525060200191505060405180910390fd5b919050565b828054600181600116156101000203166002900490600052602060002090601f016020900481019282601f106118cd57805160ff19168380011785556118fb565b828001600101855582156118fb579182015b828111156118fa5782518255916020019190600101906118df565b5b5090506119089190611a19565b5090565b828054600181600116156101000203166002900490600052602060002090601f016020900481019282601f1061194d57805160ff191683800117855561197b565b8280016001018555821561197b579182015b8281111561197a57825182559160200191906001019061195f565b5b5090506119889190611a19565b5090565b50805460008255600302906000526020600020908101906119ad9190611a3e565b50565b50805460008255906000526020600020908101906119ce9190611a19565b50565b50805460018160011615610100020316600290046000825580601f106119f75750611a16565b601f016020900490600052602060002090810190611a159190611a19565b5b50565b611a3b91905b80821115611a37576000816000905550600101611a1f565b5090565b90565b611a9991905b80821115611a955760008082016000611a5d91906119d1565b6001820160006101000a81549073ffffffffffffffffffffffffffffffffffffffff0219169055600282016000905550600301611a44565b5090565b9056fe43616e646964617465206164647265737320616c726561647920657869737473215468657265206d757374206265206174206c656173742074776f2063616e64696461746573214f6e6c792061206d6f64657261746f722063616e207365742074686520656c656374696f6e206465736372697074696f6e214f6e6c792061206d6f64657261746f722063616e20726573657420616e20656c656374696f6e2146756e6374696f6e2063616c6c6572206973206e6f742061206d6f64657261746f7221a265627a7a72315820bab6ab3f2a87578226566d02f8a6922857b6ecc13b03bfb41667af61d77318a264736f6c63430005100032",
  "source": "// SPDX-License-Identifier: MIT\npragma solidity >=0.4.21 <0.7.0;\n\n// to change: use a list of structs for the candidate to replace all the mappings\n\ncontract VotingSystem {\n    struct Candidate {\n        string name;\n        address addr;\n        uint256 votes;\n    }\n\n    // keep track of which accounts have voted in current election\n    mapping(address => bool) private hasVoted;\n    // list of voter addresses\n    address[] private voters;\n\n    // list of all candidates\n    Candidate[] private candidates;\n\n    // represents whether voting has started for current election\n    bool public electionStarted;\n\n    // description of the current election\n    string public electionDescription;\n\n    // owner of contract, always deploying account\n    address public owner;\n\n    constructor() public {\n        // set owner to the account which deployed the contract\n        owner = msg.sender;\n\n        // set placeholder for election description\n        electionDescription = \"Description placeholder\";\n    }\n\n    // sets the description of the election\n    function setElectionDescription(string memory description) public {\n        require(\n            msg.sender == owner,\n            \"Only a moderator can set the election description!\"\n        );\n\n        electionDescription = description;\n    }\n\n    // resets the election\n    function resetElection(string memory newDescription) public {\n        require(\n            msg.sender == owner,\n            \"Only a moderator can reset an election!\"\n        );\n\n        // reset all voters\n        for (uint256 i = 0; i < voters.length; i++) {\n            hasVoted[voters[i]] = false;\n        }\n\n        delete candidates;\n        delete voters;\n        electionDescription = newDescription;\n\n        electionStarted = false;\n    }\n\n    // add candidate to candidates list\n    function runCandidate(string memory newCandidateName) public {\n        // require that election has not started\n        require(electionStarted == false);\n\n        // require that candidate does not already exist\n        bool doesExist = false;\n        for (uint256 i = 0; i < candidates.length; i++) {\n            if (candidates[i].addr == msg.sender) {\n                doesExist = true;\n            }\n        }\n\n        require(doesExist == false, \"Candidate address already exists!\");\n\n        // add candidate information to contract state\n        candidates.push(Candidate(newCandidateName, msg.sender, 0));\n    }\n\n    function unRunCandidate() public {\n        candidates.pop();\n    }\n\n    function getCandidates() public view returns (address[] memory) {\n        address[] memory candidateAddresses = new address[](candidates.length);\n\n        for (uint i = 0; i < candidates.length; i++) {\n            candidateAddresses[i] = candidates[i].addr;\n        }\n\n        return candidateAddresses;\n    }\n\n    // returns candidate name given candidate address\n    function getCandidateName(address candidateAddress)\n        public\n        view\n        returns (string memory)\n    {\n        // verify that candidate exists\n        for (uint256 i = 0; i < candidates.length; i++) {\n            if (candidates[i].addr == candidateAddress) {\n                return candidates[i].name;\n            }\n        }\n\n        revert(\"Candidate does not exist!\");\n    }\n\n    // returns the number of votes of a given candidate\n    function getCandidateVotes(address candidateAddress)\n        public\n        view\n        returns (uint256)\n    {\n        // verify that candidate exists\n        for (uint256 i = 0; i < candidates.length; i++) {\n            if (candidates[i].addr == candidateAddress) {\n                return candidates[i].votes;\n            }\n        }\n\n        revert(\"Candidate does not exist!\");\n    }\n\n    // vote for a candidate\n    function vote(address candidateAddress) public {\n        // verify that voting has started\n        require(electionStarted == true, \"Voting has not started!\");\n\n        // verify that voter has not already voted\n        require(hasVoted[msg.sender] == false, \"Client has already voted!\");\n\n        // verify that candidate exists\n        for (uint256 i = 0; i < candidates.length; i++) {\n            if (candidates[i].addr == candidateAddress) {\n                // incrementing candidate votes\n                Candidate storage currentCandidate = candidates[i];\n                currentCandidate.votes += 1;\n\n                // record that calling account has voted\n                hasVoted[msg.sender] = true;\n                voters.push(msg.sender);\n            }\n        }\n\n        revert(\"Candidate does not exist!\");\n    }\n\n    // start voting\n    function beginElection() public {\n        // verify that election has not already started\n        require(electionStarted == false, \"Election has already started!\");\n\n        // verify that caller of function is a moderator\n        require(\n            msg.sender == owner,\n            \"Function caller is not a moderator!\"\n        );\n\n        require(\n            candidates.length >= 2,\n            \"There must be at least two candidates!\"\n        );\n\n        electionStarted = true;\n    }\n\n    // end voting\n    function endElection() public returns (address[] memory) {\n        // verify that election has started\n        require(electionStarted == true, \"Election has started!\");\n\n        // verify that caller of function is a moderator\n        require(\n            msg.sender == owner,\n            \"Function caller is not a moderator!\"\n        );\n\n        // find the indicies of the winners in candidates\n        // create a list\n\n        electionStarted = false;\n\n        address[] memory winners = new address[](candidates.length);\n        winners[0] = candidates[0].addr;\n\n        uint256 winnersSize = 1;\n\n        uint256 winnerIdx = 0;\n\n        uint256 winningVotes = candidates[0].votes;\n\n        // first find winner\n        for (uint256 i = 0; i < candidates.length; i++) {\n            if (candidates[i].votes > winningVotes) {\n                winners[0] = candidates[i].addr;\n                winnerIdx = i;\n                winningVotes = candidates[i].votes;\n            }\n        }\n\n        // determine if there is a repeated winner\n        for (uint256 i = 0; i < candidates.length; i++) {\n            // if the index is not the same as the winning index\n            // and the number of votes for the current candidate is the same\n            // as the winning number of votes...\n            if (i != winnerIdx && candidates[i].votes == winningVotes) {\n                winners[winnersSize] = candidates[i].addr;\n                winnersSize += 1;\n            }\n        }\n\n        return winners;\n    }\n}\n\n// // addresses of all candidates\n// address[] private candidates;\n\n// // mapping of candidate id's to bool representing their existence\n// mapping(address => bool) private candidatesExist;\n\n// // mapping of addresses to bool showing moderator status\n// mapping(address => bool) private moderators;\n\n// // candidate address to name\n// mapping(address => string) private candidateNames;\n\n// // candidate address to number of votes\n// mapping(address => uint256) private candidateVotes;\n\n// // addresses of people who have voted\n// mapping(address => bool) private hasVoted;\n\n// // if false, voting has not begun and new candidates can run\n// // if true, voting has begun, people can vote, and new candidates can not run\n// bool public electionHasStarted = false;\n\n// // description of the current election\n// string electionDescription;\n\n// // owner of contract, always deploying account\n// address private owner;\n",
  "sourcePath": "/Users/maximiliankaufmann/Desktop/Projects/Blockchain/votingSystem/contracts/VotingSystem.sol",
  "compiler": {
    "name": "solc",
    "version": "0.5.16+commit.9c3226ce.Emscripten.clang"
  },
  "schemaVersion": "3.4.2",
  "updatedAt": "2021-09-16T00:03:09.799Z",
  "networkType": "ethereum",
  "devdoc": {
    "methods": {}
  },
  "userdoc": {
    "methods": {}
  }
}